:100000000C9446000C9452000C9450000C94500038
:100010000C9450000C9450000C9450000C94500020
:100020000C9450000C9450000C9450000C94500010
:100030000C9450000C9450000C9450000C94500000
:100040000C9450000C9450000C9450000C945000F0
:100050000C9450000C9450000C9450000C945000E0
:100060000C9450000C9450000C9450000C945000D0
:100070000C9450000C9450000C9450000C945000C0
:100080000C9450000C9450000C94500011241FBE8E
:10009000CFEFD0E1DEBFCDBF0E9483000C94900073
:1000A0000C9400001F920F920FB60F9211248F93A1
:1000B0009F93AF93BF931BBA8FEF9BE7A2E9815049
:1000C0009040A040E1F700C0000081E08BBB8FEFC3
:1000D0009BE7A2E981509040A040E1F700C00000FA
:1000E0001BBA8FEF9BE7A2E981509040A040E1F757
:1000F00000C00000BF91AF919F918F910F900FBEF4
:100100000F901F9018958FEF8ABB8EEF81BB81E017
:1001100089BF83E080936A0078948FEF8BBBFECF1A
:04012000F894FFCF81
:00000001FF
