:100000000C9446000C9452000C9450000C94500038
:100010000C9450000C9450000C9450000C94500020
:100020000C9450000C9450000C9450000C94500010
:100030000C9450000C9450000C9450000C94500000
:100040000C9450000C9450000C9450000C945000F0
:100050000C9450000C9450000C9450000C945000E0
:100060000C9450000C9450000C9450000C945000D0
:100070000C9450000C9450000C9450000C945000C0
:100080000C9450000C9450000C94500011241FBE8E
:10009000CFEFD0E1DEBFCDBF0E946E000C947E009A
:1000A0000C9400001F920F920FB60F9211248F93A1
:1000B0009F93AF93BF931BBA8FE796E9A8E981504E
:1000C0009040A040E1F700C00000BF91AF919F9128
:1000D0008F910F900FBE0F901F9018958FEF8ABBD6
:1000E0008EEF81BB8FB780688FBF81E089BF83E0CF
:1000F00080936A0078948FEF8BBBFECFF894FFCF8C
:00000001FF
